:020000040800F2
:10000000000002204115000875150008751500084C
:10001000751500087515000875150008000000002A
:10002000000000000000000000000000751500083E
:10003000751500080000000075150008751500080A
:100040007515000875150008751500087515000868
:100050007515000875150008751500087515000858
:100060007515000875150008751500087515000848
:100070007515000875150008751500087515000838
:1000800075150008751500087515000800000000BA
:1000900000000000000000000000000075150008CE
:1000A0007515000875150008751500087515000808
:1000B00075150008751500087515000875150008F8
:1000C00075150008751500087515000875150008E8
:1000D000751500087515000875150008000000006A
:1000E000751500087515000875150008000000005A
:1000F000000000000000000000000000751500086E
:100100000000000075150008751500087515000839
:1001100000000000000000000000000000000000DF
:100120007515000875150008751500087515000887
:10013000751500080000000000000000000000002D
:10014000000000000000000000000000751500081D
:100150007515000875150008751500087515000857
:10016000751500087515000800000000000000006B
:10017000000000000000000000000000000000007F
:1001800000000000751500080000000000000000DD
:10019000751500087515000810B5054C237833B99E
:1001A000044B13B10448AFF300800123237010BD4A
:1001B000900B0020000000004C0801080C4B43B1DC
:1001C0000C480D4910B5AFF300800C48036823B903
:1001D00010BD0A48036833B97047094B002BF7D0AC
:1001E000BDE810401847064B002BF5D0184700BF5C
:1001F000000000004C080108940B0020880B002030
:1002000000000000154B002B08BF134B9D46A3F5C3
:10021000803A00218B460F461348144A121A07F001
:100220001DFA0F4B002B00D098470E4B002B00D02F
:1002300098470020002104000D000D48002802D03E
:100240000C4801F028FF06F0DFFF2000290002F033
:100250003FF801F01DFF00BF000008000000022071
:1002600000000000C1220008900B0020CC110020EB
:10027000972000080000000010B50446044B40F829
:10028000043B23690BB19B689847204610BD00BF13
:1002900018F7000810B5094B036003F120027C3306
:1002A0000446C0F8BC20C0F8C030BC3004F08CFD5F
:1002B000204604F0F1F9204610BD00BF1CF90008EB
:1002C000A0F1BC00E6E7A0F1C000E3E710B50446EA
:1002D000FFF7D2FF2046D42104F064FE204610BD73
:1002E00038B51A481A4D00F08FFA0421174800F06B
:1002F000C7FA0121154801F015F81649134804F012
:1003000075FD01220021114800F07CFA12490F48C6
:1003100004F06CFD0A2401220D210C4800F072FA51
:1003200022462946094804F061FD4FF07E5004F052
:10033000ABFC013CEFD12146044800F0F9FF214617
:10034000024800F0EFFF204638BD00BF800C0020BF
:1003500052F1000838F1000844F1000810B50446D5
:10036000FFF798FF2046D82104F01CFE204610BD60
:10037000A0F1BC00F2E7A0F1C000EFE710B5044B1C
:10038000036070330446436004F01EFD204610BD38
:1003900020F20008A0F10400F0E700BF10B5044B04
:1003A0000360703304464360FFF7E8FF204610BD4A
:1003B000A0F10008A0F10400F0E700BF10B504466A
:1003C000FFF7DCFF2046582104F0ECFD204610BD6D
:1003D000A0F10400F2E710B50446FFF7DFFF204666
:1003E000602104F0DFFD204610BDA0F10400F2E71B
:1003F00073B5184D184C194E4FF4E1330093032296
:1004000000230221284604F0CDFB2846144D15494F
:10041000224601F03BFE18221921284603F034FF42
:1004200022461149284601F031FE104B1A784FF050
:1004300080735200009329460D4B02F0FE023046B5
:1004400000F0CAFF0B492246304602B0BDE87040BA
:1004500001F01CBEE00C002098010020800C002060
:10046000AC0B002095020008790200089C010020D6
:10047000001404009D03000803681B691847036803
:100480009B69184703689B6A18474FF0FF30704715
:10049000112070477047704770474FF0FF3070472A
:1004A00038B5036804460D465B6D01219847236803
:1004B00029111B6E20469847012004F0D6FB2368C3
:1004C00000215B6D20469847012004F0CEFB236895
:1004D00020465B6D01219847236829461B6E204604
:1004E0009847012004F0C1FB236820465B6D002182
:1004F00098470120BDE8384004F0B7BB07B590F835
:100500005D3081B143F0010380F85D30002390F845
:100510005C10009300F15D020123806D03F02AFF5F
:1005200003B05DF804FB23F00103EDE707B590F895
:100530005D3081B143F0080380F85D30002390F80E
:100540005C10009300F15D020123806D03F012FF47
:1005500003B05DF804FB23F00803EDE770B50D462A
:1005600000210446164604F007FC0B4BA56103F17D
:10057000080278336360C5F30723E662E36106F49B
:100580007046C5F3074305F070652260236265621B
:100590002663204670BD00BF18F2000838B5036816
:1005A00004460D465B6D01219847236829461B6E62
:1005B00020469847012004F058FB236820465B6DD5
:1005C000002198470120BDE8384004F04EBB38B503
:1005D000036804460D469B6D00219847012004F0F6
:1005E00044FB236820465B6E294698472820BDE8D7
:1005F000384004F03ABB38B5036804460D469B6D9D
:1006000001219847012004F030FB236820465B6EEF
:10061000294698472820BDE8384004F026BB000052
:1006200010B4064BC46A9C4241F0080108BF02F0B6
:10063000020211435DF8044BFFF7C9BF15000043E8
:10064000436AB3F1407F70B506460C46154635D077
:100650000CDCB3F1807F26D0B3F1007F27D063B9E3
:10066000032A20D8DFE802F02128191CB3F1A06F7B
:100670003BD004DCB3F1806F2ED0002415E0B3F141
:10068000C06F5ED0B3F1E06FF7D1012D67D0022DBE
:1006900027D0002D18BF002407E0C3691C4404E0E4
:1006A000C3694033FAE705B10834204670BDC36919
:1006B0005B109942F9DBCC1A4034F6E7032A0BD8D9
:1006C00001A353F822F000BFAB060008E3060008C0
:1006D000B9060008E7060008012DEDD0022D02D072
:1006E0001DB92034E1E76034DFE7012D96F834309E
:1006F00013DC7BB1002296F828103046FFF790FFFC
:10070000002386F8343096F8402096F828103046BA
:10071000FFF786FF04EB8514C7E7012B0FD00022FB
:1007200096F828103046FFF77BFF012386F8343017
:1007300096F8402096F828103046FFF771FF023DEA
:10074000E8E7012AB8D0022A02D0002A9DD1ACE7FE
:10075000C3695A109142A4BF40338C1A9EE71034EB
:10076000A3E700BF0A2938B504460D4615D100237A
:100770008363C36B026A01339342C36301DB0023CB
:10078000E363E26BA16B2046FFF75AFF40F0800164
:100790002046FFF71CFF284638BDFFF72CFFA36B50
:1007A000E26901339342A363EBDB0023A363E36BB2
:1007B000226A01339A42E363E1DDE2E7002910B5E2
:1007C000044611DA0023A363002A14DA0023E3634A
:1007D000A16BE26B2046FFF733FF40F0800120461B
:1007E000BDE81040FFF7F3BEC369994201DB013B4E
:1007F000E9E78163E8E7236A9A4201DB013BE6E728
:10080000E263E5E7FFF7DABF38B58269174B9A4232
:10081000044611D10125002290F8281080F83450A8
:10082000FFF7FEFE29462046FFF7D1FE142004F014
:1008300039FA002384F8343001212046FFF7C7FE3F
:10084000142004F02FFAA269084B9A4206D194F8BA
:10085000402094F828102046FFF7E2FE00222046B0
:100860001146BDE83840FFF7A9BF00BF00280405C6
:1008700003460A4683F8401090F82810FFF7D0BED0
:1008800038B58269164B80F828109A42044623D165
:1008900090F834507DB990F84020FFF7C1FE012355
:1008A00084F834302A4694F828102046FFF7B8FE22
:1008B00084F8345038BD002280F83420FFF7B0FEB1
:1008C000012394F8402094F8281084F8343020460E
:1008D000BDE83840FFF7A4BE90F84020F8E700BF1D
:1008E00000280405036870B59B6D0D460021044681
:1008F0009847002D43D103212046FFF74FFE0F20DC
:1009000004F0D0F903212046FFF748FE0F2004F041
:10091000C9F903212046FFF741FE0F2004F0C2F978
:1009200020460221FFF73AFE282004F09EF9E26AF1
:10093000B14B9A4200F0AF8279D8B04B9A4200F0A6
:1009400042843FD8AE4B9A4200F010841FD8AD4B82
:100950009A4200F03283A369AB4A934200F0A2842A
:1009600000F29784B3F5883F00F0A58400F28A84F2
:10097000B3F5843F00F09F84082300F09DBC20461F
:100980003021FFF724FE012004F08CF9CFE79F4BC4
:100990009A42A36900F0C1809D498A42DBD1B3F538
:1009A000053F00F0058100F2FC80B3F58C3F00F0BC
:1009B000148100F2F080B3F5843F00F00E81B3F5AE
:1009C000883FB7E0934B9A42A36900F0438213D863
:1009D00091498A42BFD1914A93420BD000F2B4812F
:1009E000B3F5883F06D0B3F58C3F03D0B3F5843F11
:1009F00040F0C6816564B4E189498A4200F0A98269
:100A000001F57F41FF318A42A5D17F4A934200F030
:100A10007C8200F27282B3F58C3F00F07882B3F5ED
:100A2000063F00F094827F4804F014F876E27E4B93
:100A30009A4249D03CD87D4B9A4205D01AD8A3F5AA
:100A40000053023B9A4286D10A2004F02BF9A36995
:100A5000B3F58C3F00F0AF8200F29A82B3F5843F89
:100A600000F09F82B3F5883F00F09B826D4803F051
:100A7000F1FF98E26E4B9A42A36900F0CF826D4974
:100A80008A427FF468AF604A934200F0A18100F28D
:100A90008081B3F5883F00F09B8100F27481B3F54B
:100AA000843F00F09581082363640A23A3648DE1E9
:100AB000614B9A42A3691AD8604EB24280F00B8112
:100AC0005F4B9A427FF447AFA3694F4A934200F0CD
:100AD000C88000F2BD80B3F5883F00F0F98000F2D5
:100AE0008480B3F5843F00F0F3800823F1E055499A
:100AF0008A427FF430AF444A934200F0A48300F26C
:100B00009983B3F5883F00F0BA8300F28D83B3F583
:100B1000843F00F0B4830823B2E3B3F5023F47D02B
:100B200024D8B3F5883F58D01AD8B3F5843F54D0B1
:100B3000B3F5863F51D03B4803F08CFFA16C2046B3
:100B400041F02001FFF743FDE16C204641F0080130
:100B5000FFF73DFD10212046FFF739FD80210BE115
:100B6000B3F58A3F39D0B3F58C3FE3E7B3F5063FE1
:100B70001ED006D8B3F5043F1AD0B3F5053FDAD13D
:100B800016E0314A93421FD002F5006293421BD017
:100B9000B3F5083FF3E7B3F5023F09D0B3F5043FDF
:100BA000EDE7B3F50A3F03D008D8B3F5063FEFD120
:100BB00045F00A03636445F00C0513E0174A9342BD
:100BC0000BD0224A9342B6D145F0020345F004050A
:100BD0006364A5640123E364B0E745F00203636442
:100BE00045F00405A5640023F5E7B3F58C3F6FD00D
:100BF0000A4A934277E700BF0600038119000921E2
:100C00000D00021117000809000C0303030008215E
:100C100004000821050000811500004300080201BE
:100C20000800008156F10008110002C10C20038168
:100C300016000AA10E000BA1130003C1120003C18C
:100C4000100003C11A0003C5000C040300180403BC
:100C5000C74A934205D036D8A2F5406293427FF44A
:100C600044AFC44803F0F6FE616C204641F0210118
:100C7000FFF7ADFC1C212046FFF7A9FC2823636584
:100C800078212046FFF7A3FCE26ABB4B9A420CBFD7
:100C90000C2308232365616D236DC1F3011143F01B
:100CA000500319432046FFF792FC0A2003F0FAFF95
:100CB00020466C21FFF78BFC0A2003F0F3FF616CE8
:100CC00041F02001A6E1AD4A9342CAD0AC4AC5E743
:100CD00000236364C8E7AB4A934209D00CD8B3F54C
:100CE000883F05D0B3F58C3F02D0B3F5843F29D1BE
:100CF00000236364042511E09D4A934206D0A04A74
:100D0000934208D002F1FC2293421BD1994803F090
:100D1000A1FE002502E0082363640525616C2046DE
:100D200041F02101FFF753FC45F010012046FFF789
:100D30004EFC2823636578212046FFF748FCE36AD0
:100D4000B342A4E70823D4E7894A934206D08C4AE9
:100D5000934203D002F1FC22934211D1854803F063
:100D600079FE616C204641F02401FFF730FC04213C
:100D70002046FFF72CFC40212046FFF728FC9EE789
:100D800045F0080536E6B3F58C3F21D07D4A934205
:100D900087E67D4A934209D00ED8A2F5823293426B
:100DA00016D002F57A4293427FF47DAE0823636445
:100DB0000A23A36401250FE06D4A934203D0704AD1
:100DC00093427FF470AE6B4803F044FE002503E0CD
:100DD000002502236564A364A16C204641F0200134
:100DE000FFF7F5FB06212046FFF7F1FB052003F096
:100DF00059FF45F008012046FFF7E9FB1021204686
:100E0000FFF7E5FB616C204641F02101FFF7DFFBB6
:100E10002823636578212046FFF7D9FB616D0C23F9
:100E2000C1F30111236541F05C012046FFF7CFFBC0
:100E30000A2003F037FF20466E21FFF7C8FB0A2087
:100E400003F030FFA16C204641F02001FFF7BFFB0B
:100E5000102191E7B3F58C3F06D0B3F5033F18D0CE
:100E6000444803F0F7FD01E000236364616C204611
:100E700041F02101FFF7ABFB0A2003F013FF05212E
:100E80002046FFF7A4FB02212046FFF7A0FB082124
:100E900072E70423E9E7A369B3F58C3F06D0B3F505
:100EA000033F28D0334803F0D5FD01E000236364FD
:100EB000616C204641F02101FFF789FB04212046A7
:100EC000FFF785FB20461021FFF781FB20464221DA
:100ED000FFF77DFB202363652046A021FFF777FB0A
:100EE00094F85410204641F0C001FFF770FB0A202F
:100EF00003F0D8FEC7E70423D9E7244A934204D07D
:100F000002F57F0293427FF48EAD2E2100E0222174
:100F10002046FFF75CFB0A2003F0C4FE02212046B6
:100F2000FFF755FB0A2003F0BDFE20460621FFF720
:100F30004EFB20461421FFF74AFB20460221FFF713
:100F400097FC20460421BDE87040FFF799BC2A2198
:100F5000DEE70E4A934208D002F57F02934204D0A6
:100F600002F17F4293427FF45EAD2C21D0E700BFB7
:100F70000018040356F10008100003C1000C03041C
:100F8000001003070008020100140403000C04030E
:100F9000B3F5023F03D0B3F5043F7FF467AD0423FC
:100FA00000E002236364616C204641F02101FFF7F9
:100FB0000EFB072183E70023F4E717212046FFF704
:100FC00006FB0A2003F06EFEA369BC4A93423FF47D
:100FD0002AAD0ED8B3F5883F1BD004D8B3F5843FB3
:100FE00017D0282116E0B3F58C3F12D0B44A9342B3
:100FF000F6E7B44A93423FF416AD04D8A2F5406236
:101000009342EED10FE5B04A93423FF40CADAF4AA4
:10101000F6E720212046FFF7DAFA7FE7B3F5053F30
:1010200011D016D8B3F5883F2AD006D8B3F5843F3F
:1010300026D0A74803F00EFD09E0B3F5023F02D029
:10104000B3F5043FF5D1082363640A23A3640025A4
:101050001AE09A4A934213D005D8994A93420FD086
:101060009C4A9342EEE79C4A934209D002F58232B1
:101070009342DED1082363640A23A364012503E0BD
:10108000002502236564A36420460021FFF79FFA30
:10109000A16C204641F02001FFF799FA204671210A
:1010A000FFF795FA20460021FFF7A5FA204679219F
:1010B000FFF78DFA2046D521FFF789FA20467021E7
:1010C000FFF785FA20467821FFF781FA20460521AF
:1010D000FFF77DFA45F008012046FFF778FA204631
:1010E0007221FFF774FA20460121FFF784FA2046A7
:1010F0007921FFF76CFA2046DA21FFF768FA2046DB
:101100001021FFF764FA2046DC21FFF760FA204641
:101110008021FFF75CFA3F23636520468121FFF7BA
:1011200056FA616D8900204641F00301FFF74FFA3E
:101130002046D921FFF74BFA2046F121FFF747FA65
:101140002046DB21FFF743FA30212046FFF73FFA24
:101150000A2003F0A7FD20467821FFF738FA616CDA
:10116000204641F02101FFF732FA6BE6A369B3F59F
:10117000023F26D014D8B3F5883F03D00AD8B3F580
:10118000843F14D100236364616C3F23636561F085
:1011900003013FE7B3F58A3FF4D0B3F58C3FF0E7A6
:1011A000B3F5053F0DD006D8B3F5043F09D0484844
:1011B00003F050FCE8E7B3F5063F02D0404A934203
:1011C000DFE70823DFE7A369B3F58C3F07D011D829
:1011D000B3F5863F03D007D8B3F5843F12D102237D
:1011E00063640423A364FEE4B3F5883FF7D0B3F54A
:1011F0008A3FF3E7394A934211D007D8A2F500623B
:1012000093420CD00A2363640C23EBE72D4A9342EC
:101210003FF491AC2D4A93423FF48DACF2E70223A8
:1012200063640423A364D5E4B3F58C3F27D0244A38
:1012300093426EE4234A934205D01BD8A2F5406244
:1012400093427FF468AC224803F004FC616C2046B2
:1012500041F02101FFF7BBF928236365782120467F
:10126000FFF7B5F9616D0C23C1F30111236541F05E
:101270005C0117E5144A9342E5D0144AE0E70023E5
:101280006364E3E7B3F58C3F15D00D4A9342FFF753
:1012900071BB134A934205D008D8A2F57C42934211
:1012A0007FF46AAB0A4803F0D5FB08E5054A934290
:1012B000F8D0054AF3E70023636400E5000C03035C
:1012C0000008020100180403000C030400100307C7
:1012D00056F100080010010200100303001404037B
:1012E000000C040338B5044664200D4603F0DAFC14
:1012F000A2690B4B9A4206D1012384F83430294667
:101300002046FFF7EFFA0023204684F834302946C0
:10131000FFF7E8FA2046BDE83840FFF775BA00BF8E
:101320000028040503680129DB6D18BF0021184758
:1013300038B50446254D49B30421FFF7A1FAE36A05
:10134000AB4208D8224A934212D202F168421432C8
:10135000934204D038BD1F4A934209D038BD20467D
:101360001721FFF734F90A20BDE8384003F09ABC92
:10137000A16C204641F02001FFF729F90221204607
:10138000FFF725F9616C41F0200112E0FFF778FAD0
:10139000E36AAB4208D80E4A93420FD202F1684288
:1013A0001432934204D038BD0A4A934206D038BD65
:1013B00013212046BDE83840FFF709B9A16C20464B
:1013C00041F02001FFF703F90321D8E704000821C9
:1013D000030008210E000BA173B50E4615461946F1
:1013E000069A0446FFF7BAF8104BA66503F1080207
:1013F00025F0010578332260636084F85C50304644
:101400000B4902F087FF2246002502F85D5F0123A9
:1014100094F85C100095A06D02F0ACFF20462946C0
:10142000FFF760FF204602B070BD00BF98F10008D2
:10143000A086010090F8342090F85D3042B921B1C7
:1014400043F0040380F85D30704723F00403F9E7AC
:1014500011B143F00203F5E723F00203F2E713B5FD
:10146000FFF7E8FF002390F85C10009300F15D02A5
:101470000123806D02F07EFF02B010BD90F85D3058
:10148000CA0703F00F0348BF43F0100380F85D3034
:101490008B0742BF90F85D3043F0200380F85D3049
:1014A0004A0742BF90F85D3043F0400380F85D305A
:1014B0000B0742BF90F85D3063F07F0380F85D302A
:1014C000704713B5FFF7DAFF002390F85C10009324
:1014D00000F15D020123806D02F04CFF02B010BDEF
:1014E00030B50D4685B00121FFF7A4FF2911FFF7A4
:1014F000C5FF002190F85D308DF80830FFF79AFFA6
:10150000012190F85D308DF80930FFF793FF2946EF
:10151000FFF7B4FF002190F85D308DF80A30FFF737
:1015200089FF90F85D308DF80B30002390F85C1047
:10153000009302AA0423806D02F01CFF05B030BDA9
:10154000DFF820D0002103E0074B5B584350043103
:101550000648074B42189A42F6D302F02BFDFEF7DD
:1015600051FE704700000220680B0108980100201E
:101570008C0B0020FEE700007FB50023072855D81C
:10158000DFE800F00413202D3A54544700932A4B0F
:101590002A481A6B42F001021A631B6B03F0010325
:1015A0000093009B07B05DF804FB0193224B244895
:1015B0001A6B42F002021A631B6B03F002030193E1
:1015C000019BEFE702931C4B1E481A6B42F004028A
:1015D0001A631B6B03F004030293029BE2E703937D
:1015E000154B19481A6B42F008021A631B6B03F083
:1015F00008030393039BD5E704930F4B13481A6B1F
:1016000042F010021A631B6B03F010030493049B57
:10161000C8E70593084B0E481A6B42F080021A6324
:101620001B6B03F080030593059BBBE7094803F0A0
:1016300011FA0020B6E700BF003802400000024067
:101640000004024000080240000C0240001002406A
:10165000001C0240C4F30008431C10B5044604D12A
:1016600074220649064803F075FA2046002100F06E
:1016700053FE04F00F040120A04010BDE5F3000864
:101680003DF4000870B504464B1C0E46218216D06E
:10169000C1F30310FFF770FF05463046FFF7DCFF8C
:1016A000238A074A656103F00F03206052F8233054
:1016B000A36105F1100318356360A560E56070BD96
:1016C00078F50008B0F9100000F0BEBE10B58369CF
:1016D000446971B9216893FAA3F2B2FA82F2032045
:1016E000520000FA02F221EA020293FAA3F3226006
:1016F00010BD226893FAA3F1B1FA81F193FAA3F332
:101700000320490000FA01F1B3FA83F322EA01024F
:101710005B00012101FA03F31343236010BD0000B5
:1017200070B5134C23681A69950707D5DA689007D6
:1017300004D56FF002021A6102F04AFE23681A69AA
:10174000510713D5DA68520710D56FF00402094E1D
:101750001A615D6A3368EB1AB3F57A7F06D301F03C
:1017600001F9236805F57A729A63356070BD00BF90
:1017700068110020B80D002030B589B001A903A878
:1017800002F010FA02F0DEF900230293254B0190DB
:101790001A6C254C42F008021A641A6C02F0080216
:1017A0000292029A1A6A42F008021A621A6A22F037
:1017B00008021A62069AA3F50B3323604FF0FF3339
:1017C000E3601A4B002A2AD1B0FBF3F00138002560
:1017D000606015482561A560656102F04FFA144B01
:1017E000144A9B681048C3F80821134B4FF4802219
:1017F0005A60294602F07EFA04210B4802F07AFA78
:1018000023680E4A596A1160126802F57A729A6367
:10181000DA68284642F00402DA6009B030BD4000C0
:10182000D2E700BF003802406811002040420F009C
:1018300000ED00E02117000800E100E0B80D0020F5
:1018400010B5054B9C68204601F0BAFA2046BDE869
:10185000104001F013BE00BFBC0D002010B5054BB9
:101860005C68204601F0ACFA2046BDE8104001F06B
:1018700005BE00BFBC0D002010B5054B1C682046FE
:1018800001F09EFA2046BDE8104001F0F7BD00BF10
:10189000BC0D002070B590F96420254C90F965309E
:1018A000A56802F1100645F8261003F11006A56898
:1018B00045F8261090F8681000290CBF022101217C
:1018C000002A4FEA01110EDB1A488518CCB2002B12
:1018D00085F800431EDA03F00F041748C9B2002A46
:1018E00001551ADA70BD02F00F0004380444CDB27D
:1018F000002B2576EFDB03F1604202F5614282F8AE
:10190000005303F01F02590901239340094A42F88A
:10191000213070BD184480F8004302F01F015009C7
:1019200001228A400349002B41F82020E9DA70BDEA
:1019300000ED00E000E100E014ED00E010B590F9EA
:10194000654090F9640001F01BF82046BDE81040A6
:1019500001F016B890F85830012B00F104010AD0BC
:1019600007D3022B054818BF0020054A42F8231070
:1019700070470448F9E70448F7E700BF411800083A
:10198000BC0D0020791800085D180008194A03688A
:101990001268C16DB2FBF1F1142243604A439969A8
:1019A000890701D5013AFAD1134A934209D1134B61
:1019B0001A6A42F400121A621A6A22F400121A62B7
:1019C00070470F4A934208D10C4B1A6A42F48002C6
:1019D0001A621A6A22F48002F1E70A4A9342EFD1AE
:1019E000064B1A6A42F400021A621A6A22F40002D2
:1019F000E5E700BFA4010020005400400038024089
:101A000000580040005C0040F8B5124BC26D1B68E6
:101A1000B3FBF2F214235343426804460E46071DFB
:101A20009169890701D5013BFAD100252946A660B5
:101A3000E560384601F0E2FD4FF480436361A56143
:101A4000256265622561E561384600F0C1FFE66503
:101A5000F8BD00BFA4010020F0B50E46044685B0D5
:101A600044493046154602F0F9FC434907462846EA
:101A700002F0F4FCA4F860600146A4F86250384615
:101A800002F0CEFC2060013005D140F20D123B493E
:101A90003B4803F05FF823683A4A93423CD1002365
:101AA000019384F85830384B1A6C42F400121A64CF
:101AB0001B6C03F400130193019B1F2384F8643013
:101AC000202384F865302B49304602F08BFC2A49EC
:101AD000284602F087FC0421304600F0B5FC0421C2
:101AE000284600F0B1FCE36D0BB9284BE3652046B6
:101AF000FFF74CFFE16D2046FFF786FF002384F8D7
:101B0000693084F8683084F86A3084F867300423D8
:101B100084F8663005B0F0BD1D4A934213D101230D
:101B200084F8583000230293174B1A6C42F4800259
:101B30001A641B6C03F480030293029B212384F834
:101B400064302223BDE7134A9342BCD1022384F8B8
:101B50005830002303930C4B1A6C42F400021A64B1
:101B60001B6C03F400030393039B482384F8643045
:101B70004923A6E7D4F2000898F2000850F40008C0
:101B8000A7F400080054004000380240A08601007D
:101B900000580040005C00402DE9F3411E4690F8DB
:101BA0006630042B0F4604469046089900F1040560
:101BB00001D0082B3FD100293BD0042384F86630A4
:101BC000002384F867302046FFF7C4FE0146204614
:101BD000FFF760FE94F8663000934246B3B2B9B2A4
:101BE000284600F063FFF0B9194B1D68E36DB5FBA3
:101BF000F3F31E2506FB05555D4394F8673013F09B
:101C00001E0F01D1013D1ED12046FFF797FE1DB1E9
:101C100094F86730082B08D0B4F96220B4F960104A
:101C20002046FFF719FF6FF00106304602B0BDE80D
:101C3000F0810123C2E7013B012BC1D809B1082380
:101C4000BCE70223BAE7012003F00FF8D5E700BF95
:101C5000A4010020436F07B5BBB1D0F88430A3B115
:101C600090F86C207AB1082280F8622090F8622007
:101C7000B0F8681000929BB2D0F8802000F080FF8E
:101C800003B05DF804FB0222EEE7082380F863301E
:101C9000F6E7082380F86330704738B5051D044621
:101CA0000261284600F094FE2046FFF753FE0146ED
:101CB0002046FFF7EFFD2846BDE8384000F0CEBFD4
:101CC00070B590F864500446061F05B1C568B4F9B4
:101CD0005E20B4F95C103046FFF7BEFE45B101232B
:101CE00084F8643000232A4619463046FFF7D5FFB2
:101CF000022384F8633070BD19B9012380F8653080
:101D00007047012908BF80F866107047002380F8EB
:101D100065307047002380F86630704700F09EBF42
:101D200010B5044650F80429536823F4E063536067
:101D3000FFF704FE022384F8633010BD10B588B0AD
:101D400002F0A4FE052101A802F070FA0424039B0E
:101D5000019A1A60962002F0A5FF019B049A1B04C9
:101D60001360962002F09EFF013CF0D10424039BF7
:101D7000019A1A604FF4C87002F094FF019B049A14
:101D80001B0413604FF4C87002F08CFF013CEED1CD
:101D9000DCE7000070B50D46A0B0044602F076FE08
:101DA0002B4622468021684607F040FE051E03DCD4
:101DB00002F098FE20B070BD094B1B6823B90322C6
:101DC0000221084800F00AFC064E00241DF8041009
:101DD0003046013400F09AFDA542F7D1E8E700BF94
:101DE000E00E0020581000200FB407B504A951F8E8
:101DF000040B0191FFF7CEFF03B05DF804EB04B0D4
:101E0000704708B502F082F900F094FD02F074F911
:101E1000BDE8084002F07AB908B5084B1B685BB909
:101E200002210748032200F0D9FB4FF41651044861
:101E3000BDE8084000F0ACBB08BD00BFE00E0020CC
:101E400058100020022810B501DC002010BDC31E70
:101E50000B4A52F82300002142F8231030B904F055
:101E6000DBFB092303604FF0FF3010BD03685B69A3
:101E70009847041EE9DA04F0CFFB64420460F2E7FD
:101E8000D00D00200228F8B50D4614460EDC134B89
:101E90001B680BB9FFF7C0FF114E2F19BD4210D0C0
:101EA00015F8011B304600F031FDF7E703380D4B04
:101EB00053F8200038B904F0AFFB092303604FF05A
:101EC000FF342046F8BD0368DB689847041EF8DA43
:101ED00004F0A2FB63420360F3E700BFE00E0020C2
:101EE00058100020D00D0020022810B50C460BDC45
:101EF000104B1B680BB9FFF78FFF0F4800F0F4FC85
:101F000020700124204610BD03380C4B53F82000EC
:101F100030B904F081FB092303604FF0FF34F1E78F
:101F200003689B689847041EECDA04F075FB634273
:101F30000360E7E7E00E002058100020D00D0020DD
:101F4000022810B516DD03380B4B53F820402CB98E
:101F500004F062FB09230360204610BD236820467D
:101F6000DB699847041EF7DA04F056FB644204600C
:101F70000024F1E70124EFE7D00D0020022810B57E
:101F800006DC04F049FB1D2303604FF0FF3010BD59
:101F900003380A4B53F8200018B904F03DFB09231D
:101FA000F2E703681B699847041E04DA04F034FB67
:101FB00064420460E9E7204610BD00BFD00D002058
:101FC000022838B50D4604DC4FF400534B60002066
:101FD00038BD03380D4B53F8204034B904F01CFBD6
:101FE000092303604FF0FF3038BD23682046DB69CA
:101FF0009847002814BF4FF400534FF400436B6020
:10200000236820469B6A98472861E0E7D00D0020AE
:10201000014802F01FBD00BF32F5000808B50120DD
:1020200000F036F80C4A136810B51844EFF3088135
:10203000884205D3094B0C221A604FF0FF3010BDC7
:1020400007490C6824B10749096821448842F1D244
:102050001060184610BD00BFA0010020C81100206C
:10206000D80E0020DC0E0020074C08B5236805467A
:10207000986804F00BFC2368D86804F007FC0DB1E5
:10208000FFF75CFEFEE700BFBC01002001207047A7
:1020900008B5FFF7E9FF01207047002105F0D6BB26
:1020A0001FB504220C463A230DEB020101900DF1FD
:1020B00009008DF8083005F0D3F9214602A804F094
:1020C00029FD044638B101980368DB69984710B1CF
:1020D0002046FFF7E2FF204604B010BD704770476E
:1020E00008B5FFF7FBFF08BD08B5FFF7F8FF08BD0F
:1020F00010B505F03FF9044610B9024802F0AAFCF9
:10210000204610BD44F5000805F03CB90048704772
:102110003CF50008034610B553F8042B044602B9F9
:10212000036022689A4204D05D220349034802F00A
:1021300011FD206810BD00BFC1F400081EF50008A5
:1021400010B504460948FFF7E5FF0023084A194681
:1021500052F82300A04208BF42F823100133402B5D
:10216000F6D10248FFF7D6FF10BD00BFD00E002009
:10217000D00D00202DE9FF4789464049064605F06D
:10218000D3FC044628B9FFF747FE204604B0BDE85B
:10219000F0873B49304605F0C7FC18B9FFF73CFE15
:1021A0000124F2E73749304605F0BEFC18B9FFF7C5
:1021B00033FE0224E9E73448344DFFF7ABFF002437
:1021C000A84655F82470002F40D00134402CF8D197
:1021D00004F022FA182303602B48FFF79BFF0EE060
:1021E000314602A802F0F8FC02A802F039FD0646CA
:1021F00040B904F011FA1323036045F824604FF04E
:10220000FF34C2E702A802F019FD074602A81FB179
:1022100002F01DFD01902BE002F007FD06460028AC
:10222000E7D0036802A8D3F808A002F0F3FC29F471
:102230000043024601A93046D0470646C0B104F02B
:10224000EBF97642066045F82470D8E74FF0FF338B
:102250000D4845F82430FFF75DFF337801973A2B9E
:10226000BED10422711C02A805F0FAF8029B01936A
:10227000019B48F82430033487E700BF69F5000864
:1022800070F5000861F50008D00E0020D00D002088
:1022900070477047074B08499A68084810B5043AD8
:1022A00052F8044F41F8044F8142F9D14FF00052E7
:1022B0009A6010BD00ED00E0FCFFFF1F94010020BC
:1022C00008B5FFF7E7FFFFF79CFDFFF7E2FF08BD4A
:1022D00008B5FFF7DDFFBDE80840FEF701B830B5EF
:1022E000C36891FAA1F4B4FA84F491FAA1F1032538
:1022F000B1FA81F1640005FA04F4490023EA040309
:1023000002FA01F11943C16030BD012A02D0022A4C
:1023100018BF0022FFF7E3BF2DE9F0410E46411C34
:10232000044604D13E224449444802F013FC04F020
:102330000F08434BC4F3031053F82850FFF71CF960
:1023400006F007070446836895FAA5F1B1FA81F112
:1023500095FAA5F20320490000FA01F1B2FA82F2DF
:1023600023EA01035200022101FA02F21343A3609F
:1023700087425AD8DFE807F05E1D021DB8F1070F4B
:10238000C6F303203BD9626A2B0A93FAA3F1B1FA90
:1023900081F193FAA3F34FF00F0EB3FA83F38900A0
:1023A0000EFA01F19B0022EA010200FA03F3134343
:1023B00063623B46226895FAA5F0B0FA80F095FA80
:1023C000A5F14FF0030EB1FA81F140000EFA00F0D2
:1023D000490022EA00028B40013F1343012F236092
:1023E00005D8636832074CBF2B43AB436360C6F329
:1023F000011229462046BDE8F041FFF786BF226A58
:1024000095FAA5F3B3FA83F395FAA5F14FF00F0E01
:10241000B1FA81F19B000EFA03F3890022EA03026C
:1024200000FA01F313432362C3E767220249054818
:1024300002F090FB0023BDE7B8F500083DF400086A
:1024400078F50008F3F60008431C70B506460D4603
:1024500004D188221B491C4802F07CFB06F00F02C5
:102460001A4BC6F3031053F82240FFF785F804FB1C
:1024700004F2016802EB42030B40B3FBF2F3013BB1
:10248000012B05D8EB1E022B436809D82343436078
:10249000032D08D101222146BDE87040FFF735BF6A
:1024A00023EA04034360012DF4D0052D01D0022D51
:1024B00001D10222EFE721460022BDE87040FFF77C
:1024C0000EBF00BFB8F500083DF4000878F500081D
:1024D0000FB407B5064B07491B6805AAD8680192D7
:1024E00007F01CFA03B05DF804EB04B0704700BFBE
:1024F000BC0100200EF600084368094A9B0182B027
:10250000D3581A68120706D5002201921A68019260
:102510005A680192019A1868C0F3401002B07047DF
:10252000A41000204368034A9B01D3581868C0F3E5
:10253000C0107047A410002042681449920110B4E2
:1025400004685450531882685A60C2689A600269DD
:10255000DA6042691A61026A9A610022DA84DA61F9
:102560009A84DA859A85B0F91A20013206D10822B8
:102570005A6118465DF8044B01F0D9BCB0F9182037
:1025800001320CBF04220C22F2E700BFA41000208D
:1025900010B581600C46FFF7CFFF28B121460348F4
:1025A000BDE81040FFF794BF10BD00BF0EF6000855
:1025B000094B98420BD0A3F54C43984209D003F540
:1025C000504398420CBF02204FF0FF30704700206C
:1025D00070470120704700BF00100140F0B50E4663
:1025E00085B0044653493046154601F037FF52493D
:1025F0000746284601F032FF0146384601F010FF39
:102600002060013004D138224C494D4802F0A2FA32
:10261000022E0CD0032D0AD04649022001F01EFFE5
:10262000874202D1474802F015FA002700E001274F
:102630002068454B98424AD103F594335A6A42F0D8
:1026400010025A625A6A22F010025A620022019263
:102650005A6C42F010025A645B6C03F01003019351
:10266000019BFFF7A5FF0028606004DABE22334912
:10267000364802F06FFA2F49304601F0B3FE2E497A
:10268000284601F0AFFE721C03D001213046FFF74F
:10269000DBFE6B1C03D001212846FFF7D5FE4FF46B
:1026A0001653A3600023E3602361636123622683E2
:1026B00065832046FFF740FF3FB1254B25480122A7
:1026C0001A6021464C2204F0CBFE05B0F0BD224B2F
:1026D000984215D103F5FA331A6A42F400321A62AD
:1026E0001A6A22F400321A62002202921A6C42F430
:1026F00000321A641B6C03F400330293029BB0E7B0
:10270000164B9842ADD103F592335A6A42F020023B
:102710005A625A6A22F020025A62002203925A6CCC
:1027200042F020025A645B6C03F020030393039B86
:1027300097E700BF70F300081CF3000838F60008A4
:1027400092F60008AEF6000800100140E3F600081B
:10275000E00E00205810002000440040001401400A
:10276000002808DB4209012300F01F0003FA00F0F3
:10277000014B43F82200704700E100E000280DDB28
:102780004309012200F01F0002FA00F02033044A3E
:1027900042F82300BFF34F8FBFF36F8F704700BF26
:1027A00000E100E0F7B5FFF703FF071E26DB144E3C
:1027B00056F8270010B3134CBD0163591A6812066E
:1027C00006D5DB68190603D50F4B01211B68984716
:1027D00063591A68920608D5DB68980605D50A4B36
:1027E00056F827001B680021984763591A6811079B
:1027F00004D55A69D20744BF5B68019303B0F0BDAA
:10280000E80E0020A4100020E40E00200148FFF78D
:10281000C9BF00BF001401400148FFF7C3BF00BF9C
:10282000004400400148FFF7BDBF00BF0010014059
:10283000034B19604168034B43F82120704700BFE8
:10284000E40E0020E80E002009C830B4204CA0425D
:102850000AD004F58064A0421AD0A4F55044A042E6
:1028600019D11C4C262001E01B4C25201B4D9B013F
:10287000BAB1EA58D36889B943F02003D360184B42
:1028800000F110029B6843F8224030BCFFF768BF9C
:10289000144C4720EAE700242046E7E743F0800392
:1028A000ECE7EB58DA6849B922F02002DA60DB681D
:1028B00013F0800F09D130BCFFF760BF22F0800217
:1028C000DA60DB6813F0200FF4E730BC704700BF1C
:1028D000001001401928000825280008A410002035
:1028E00000ED00E00D28000838B54468054628468C
:1028F000FFF702FE0028FAD0A401034B1B595868C9
:10290000C0F3080038BD00BFA410002070B54568B2
:1029100006460C463046FFF705FE0028FAD0AD010A
:10292000024B5B59C4F308045C6070BDA410002026
:102930007047000008B50A4B1A6842F400721A602A
:102940001A6842F480621A601A6842F480721A604F
:102950000F20FEF711FFFFF7EBFF002008BD00BFBF
:10296000003C0240024A136801331360704700BF05
:1029700064110020014B1868704700BF64110020EB
:1029800000280DDB4309012200F01F0002FA00F0CD
:102990002033044A42F82300BFF34F8FBFF36F8FF9
:1029A000704700BF00E100E090F83530022B03D003
:1029B00080234365012070470268052380F8353085
:1029C000136823F001031360002070477047000074
:1029D00070B50446002862D090F83D3003F0FF0245
:1029E0001BB980F83C20FFF7F1FF22682D4E2E4DD9
:1029F000242384F83D30136823F00103136001F0B1
:102A0000A1F863682268B0FBF5F5B34284BF4FF4C8
:102A100096716943556091BF691C4FF47A75B1FB9B
:102A2000F5F10131B342116221D85B00B0FBF3F044
:102A3000C0F30B03032B98BF0420216AE369D06124
:102A40000B431360E16823690B439360A1696369D9
:102A50000B43D360136843F001031360002020236D
:102A6000206484F83D30206384F83E0070BDA16886
:102A700049B903EB4303B0FBF3F0C0F30B0363B1BD
:102A800040F40040D9E719214B43B0FBF3F0C0F309
:102A90000B0313B140F44040CFE70120CDE7012004
:102AA00070BD00BFA086010040420F0073B5002436
:102AB0000094019490F83D40069D202C02D0022005
:102AC00002B070BD042D32D0012D30D090F83C40C2
:102AD000012CF4D0012480F83C4004682668F607F5
:102AE0005EBF266846F001062660266826F400666A
:102AF0002660212680F83D60102680F83E60002682
:102B000006644385C562438D41640385036B00936E
:102B1000009B4262122B01D0009B2BBB042D01D0E5
:102B2000012D1ED1236843F4807323601CE0134CF5
:102B300046F2A8162468B4FBF6F6192474430194EF
:102B4000019C661E01963CB92023046380F83C403A
:102B500080F83D300320B3E70468A469A407EFD4EC
:102B6000B4E7009B122BDDD06268002342F4E062E0
:102B700080F83C3062601846A2E700BFA401002044
:102B800073B50024019490F83D40069D202C02D09E
:102B9000022002B070BD042D37D0012D35D090F841
:102BA0003C40012CF4D0012480F83C4004682668A5
:102BB000F6075EBF266846F001062660266826F402
:102BC00000662660222680F83D60102680F83E6070
:102BD000002606644385C562438D41640385036B0B
:102BE0004262112B01D0036B63BB042D04D0012D75
:102BF00002D015F5803F22D1236843F4806323601F
:102C0000236843F4807323601CE0134C46F2A8163B
:102C10002468B4FBF6F6192474430194019C661EE3
:102C200001963CB92023046380F83C4080F83D3095
:102C30000320AEE70468A469A407EFD4AFE7036BF1
:102C4000112BD9D06268002342F4E06280F83C3056
:102C5000626018469DE700BFA401002090F83D3057
:102C6000202B14D1282380F83D3003681A68D2073E
:102C70005EBF1A6842F001021A601A6842F480626C
:102C80001A605A6842F440725A600020704702206D
:102C9000704770477047000090F83D30293B012B8A
:102CA00010B50368044639D800220263282280F850
:102CB0003D201A6822F400621A605A6812F4006219
:102CC00054D05A68606B22F400625A6090F8353034
:102CD000012B394B31D00365FFF766FE50B12268F6
:102CE000606B136823F001031360202384F83D30E8
:102CF000036D984794F83D30282B0ED1236C5B0769
:102D00000BD52E4BE362202200232363204684F858
:102D10003D2084F83E30FFF701F810BD90F83D20CB
:102D2000602A05D05A6812055CBF202280F83D2039
:102D30000022226384F83E20BBE7A06B0365FFF707
:102D400033FE0028D6D022685369580604D5636A3A
:102D50001269591C61621A702268A06B136823F013
:102D600001031360202384F83D30C1E794F83D103F
:102D7000602914D1202184F83D1022645A6951063B
:102D800004D5626A1B69511C616213702268136862
:102D900023F0010313602046FEF7C2FFAAE75A6939
:102DA000520604D5626A1B69511C61621370204689
:102DB000FEF786FF9EE700BFB13500080000FFFF69
:102DC0000368F0B59D6959695A6890F83E40E4B2CD
:102DD000102C8DB002D0402C40F04A8211F0011F1F
:102DE00066D0970564D590F83E40402C43D1046DE1
:102DF000002C3BD1446C04F0FE041C61974E984CAF
:102E00002E400C40002E00F09A81964D0D40002D72
:102E100000F06181550540F15E81002C40F05B813E
:102E200090F83D20058D90F83E10C46AD2B2C9B228
:102E3000002D40F00581212A40F00481042C00F08F
:102E40006781082C00F0648114F5803F00F06081F8
:102E50005A6822F4E0625A601123036380F83E50FE
:102E6000202380F83D30FEF7F5FE10E1446C44F07D
:102E70000104E4B2C1E70469B4F5804F05D190F8CC
:102E80003D40212C446CF2D1B5E7046D34B9446C5B
:102E9000E41104F0060444F0F004AEE7046D012CE4
:102EA000ACD1446CE41104F0060444F0F104A4E74E
:102EB0006D4C0C401CB1960501D5446CD9E76B4CA8
:102EC0000C40002C9AD0940598D590F83E40C66AE4
:102ED000D0F830E090F83D70222FE4B240F0A880A6
:102EE000076D47B9402C06D101975C6901949C6934
:102EF0000194019C82E7046D8CB90769B7F5404FD6
:102F00000DD102945C6902949C690294029C1C6835
:102F100044F480741C60046D013404656EE7448DD4
:102F2000A4B254B903945C6903949C690394039C10
:102F30001C6844F400741C6019E0448DA4B2012C98
:102F400042D116F5803F1BD11C6824F480641C60BC
:102F50005C6814F400640CD01C6824F480641C6069
:102F6000002404945C6904949C690494049C0024E7
:102F7000D3E705945C6905949C690594059CD7E7A3
:102F8000042E15D0082E13D0BEF1120F10D0C46A33
:102F9000022C1C6814BF24F4806444F480641C6018
:102FA000002406945C6906949C690694069CDEE7FE
:102FB0001C6824F480641C60002407945C690794F6
:102FC0009C690794079CB3E7448DA4B2022C1CD1E2
:102FD000C46A022C1C681DBF24F480641C601C6839
:102FE00044F4806418BF44F400641C605C682705E6
:102FF00042BF5C6844F480545C60002408945C69BF
:1030000008949C690894089CB1E71C6844F48064A7
:103010001C605C68260542BF5C6844F480545C60B8
:10302000002409945C6909949C690994099C9EE7B1
:1030300000240A945C690A949C690A940A9CDDE65F
:10304000212A03D0402922D1222A20D1428D92B2B6
:1030500072B95A6822F480625A6018E004001000C5
:1030600004000100800001000800010002000100CE
:1030700090F83E20402A28D1026D82B9C26C012A04
:10308000826C06D1D2B21A61036D023303650DB0B2
:10309000F0BDC2F307221A61036D0133F6E7026D3A
:1030A000012A02D1826CD2B2F5E7026D022AEED17A
:1030B00090F83D20222A04D11A6842F480721A60E6
:1030C000E5E790F83D20212AE1D1426A511C416296
:1030D00012781A6192E0002CD9D09405D7D5C16A34
:1030E00090F83D20212AD2D1428D92B2002AECD113
:1030F00004290DD008290BD011F5803F08D059685C
:1031000021F4E06159601123036380F83E20A7E6B3
:103110005A6822F4E0625A601A6842F400721A6037
:1031200000232022036380F83D2090F83E2080F8A1
:103130003E30402A7FF497AEFFF7ABFDA7E78D4DF9
:103140000D40002D3FD051053DD5002C3BD190F8CE
:103150003D20222A9BD1428D92B2032A05D9426A90
:103160001B69511C4162137048E0023A012A1A6837
:1031700022F480621A6004D81A6842F400621A606D
:1031800067E7C26A022A02BF1A6842F400621A6044
:103190005A6822F4E0625A60426A1B69511C41621B
:1031A0001370438D013B9BB24385202380F83D3053
:1031B0000023036390F83E2080F83E30402A54D12B
:1031C000FFF768FD63E7002C3FF461AF97057FF5DB
:1031D0005EAFC26A418D89B20329416A13D1042AC4
:1031E00004D0082A02D012F5803F03D11A6822F4D5
:1031F00080621A604A1C1B6942620B70438D013B5E
:103200009BB2438543E7448DA4B2022CF2D1042A39
:1032100027D0082A25D012F5803F22D01C68013A19
:1032200024F48064012A1C6003D81A6842F4807276
:103230001A601B694A1C42620B70438D013B9BB2B2
:103240004385436A5A1C4262026812691A70438DB0
:103250000268013B9BB24385536823F4407353607B
:10326000A3E71A6842F40072E2E7FEF712FD0EE7E8
:10327000414C0C4074B196050CD599699B6981F05D
:1032800004011D06C1F3800154BF8289028BFEF741
:1032900033FDFCE6394C0C40002C73D0940571D5FD
:1032A00090F83D20596821F4E061596000210B91AC
:1032B00059690B91196841F0010119600B9919685E
:1032C00021F48061196059680905D2B20CD590F8D3
:1032D0003D10222903D090F83D102A2929D1816B75
:1032E0000968496889B24185418D89B2E1B159695E
:1032F0004F0708D5416A1B694C1C44620B70438D13
:10330000013B9BB2438501684B695E0608D5436A61
:1033100009695C1C44621970438D013B9BB2438573
:10332000036C43F004030364036C23B1FFF7B4FCA4
:10333000ADE6416BD4E7A2F1280102290AD8104A70
:10334000C2622022036380F83D2080F83E30FEF701
:10335000E5FC9CE6036B222B02D0222A7FF497AE79
:1033600000232022036380F83D2080F83E30FEF7E2
:10337000D1FC8CE6400001000200010010000100B9
:103380000000FFFF394E3A4C2E400C40002E36D044
:10339000384D0D403DB3550525D524BB90F83D1063
:1033A000428D92B2C9B2002A3FF471AE426A541CF7
:1033B000446212781A61428D013A92B24285428D7E
:1033C00092B2002A7FF463AE29297FF460AE5A6876
:1033D00022F480625A6021230363282380F83D3061
:1033E000FEF794FC53E6002C3FF451AE94057FF5B4
:1033F0004EAE428D92B2002A7FF467AE47E61E4D74
:103400000D4035B3510524D51CBB90F83D20418DAE
:1034100089B2D2B200293FF43AAE416A1B694C1C12
:1034200044620B70438D013B9BB24385438D9BB23D
:10343000002B7FF42CAE2A2A7FF429AE0268536851
:1034400023F48063536022230363282380F83D30F4
:103450008DE7002C3FF41BAE92057FF518AE428D30
:1034600092B2002A7FF47BAE11E600BF0400100088
:10347000040001008000010040000100F8B503686D
:10348000494A5E695D681642044608D0E80506D5DB
:10349000226C42F0010222646FF480725A6116F4C9
:1034A000813F08D0E90506D5226C42F00202226471
:1034B0006FF400725A6116F4823F36D0EA0534D5B3
:1034C00094F83E70618D94F83D20206B202F89B2D6
:1034D000D2B258D1002956D102F0F701212903D0E8
:1034E000282A50D121284ED194F83D20E16A0429A0
:1034F000D2B201D008292CD1282A2AD12B4AE26243
:103500005A6822F4E0625A606FF480625A611A6865
:1035100022F480621A60002320222363204684F86C
:103520003D2084F83E30FEF7F9FB16F4843F09D0C5
:10353000EB0507D5236C43F00803236423686FF47D
:1035400000625A61236C73B32046BDE8F840FFF770
:10355000A3BB212A23D11549E1622263202284F8EA
:103560003D20002284F83E205A6822F4E0625A602E
:103570006FF480625A611A6822F480621A602046F1
:10358000FEF7C4FBD1E7226C42F00402226494F8F7
:103590003E20102A02BF1A6842F400721A606FF4CB
:1035A00080625A61C1E7F8BD000101000000FFFF21
:1035B000806B08B50368416B1A6822F480621A6058
:1035C000002242850A65816B0A6590F83D106029EA
:1035D0004FF0200180F83D1080F83E2007D10264B2
:1035E0001A6822F001021A60FEF79AFB08BD1A68F9
:1035F00022F001021A60FEF763FB08BD90F83D203F
:10360000D2B2202A10B516D1242380F83D300368A9
:103610001C6824F001041C605C6A24F010045C62E5
:103620005C6A21435962196841F00101196080F810
:103630003D20002010BD022010BD00000368F7B53A
:103640000446D8073BD42368990700F18680236895
:103650001E0700F1D18023685D072AD5002301935E
:103660008E4B8F4D1A6C42F080521A641B6C03F023
:1036700080530193019B2B6843F480732B60FFF709
:1036800079F906462B68DA0540F1D880A368834DA6
:10369000012B40F0DA802B6F43F001032B67FFF71B
:1036A00069F97E4D064641F288372B6F9B0740F142
:1036B000ED80A269002A40F0F980002015E0774BE8
:1036C0009A6802F00C02042A07D09A6802F00C02F1
:1036D000082A0CD15B685A0209D5704B1B689B0302
:1036E000B1D56368002BAED1012003B0F0BD636893
:1036F0006A4DB3F5803F11D12B6843F480332B60C2
:10370000FFF738F9654D06462B689F039BD4FFF7FA
:1037100031F9801B6428F7D90320E6E7B3F5A02F21
:1037200004D12B6843F480232B60E5E72A6822F458
:1037300080322A602A6822F480222A60002BDFD19E
:10374000FFF718F906462B6898037FF57CAFFFF763
:1037500011F9801B6428F6D9DEE7504B9A6812F005
:103760000C0F07D09A6802F00C02082A16D15B6889
:10377000590213D4494B1A68920702D5E268012A0C
:10378000B2D11868F82292FAA2F2B2FA82F1226952
:103790008A4020F0F8010A431A6058E7E268414B7A
:1037A000DAB101221A60FFF7E5F83C4D06462B68B6
:1037B0009B070CD52968F82393FAA3F3B3FA83F295
:1037C0002369934021F0F80213432B603FE7FFF792
:1037D000D1F8801B0228EAD99EE71A60FFF7CAF8E1
:1037E0002E4D06462B689F077FF531AFFFF7C2F8D5
:1037F000801B0228F6D98FE762692B4B7AB1012230
:103800001A60FFF7B7F8254D06466B6F98073FF52E
:1038100022AFFFF7AFF8801B0228F6D97CE71A60C9
:10382000FFF7A8F81D4D06466B6F99077FF513AF9C
:10383000FFF7A0F8801B0228F6D96DE7FFF79AF88A
:10384000801B02287FF61EAF66E7052B04D12B6F85
:1038500043F004032B671EE72A6F22F001022A6758
:103860002A6F22F004022A67002B7FF418AFFFF7BB
:1038700081F841F2883706462B6F98077FF519AF1C
:10388000FFF778F8801BB842F6D945E7FFF772F8E2
:10389000801BB8427FF609AF3EE700BF0038024008
:1038A0000070004000004742800E47422B4DAB683D
:1038B00003F00C03082B3FF417AF294E0023022A14
:1038C00033603ED1FFF756F807462B68990132D492
:1038D00047F6C07797FAA7F74FF44032B7FA87F761
:1038E00092FAA2F24FF07061B2FA82F091FAA1F16D
:1038F000226AE3691343626A02FA07F7A26A52086E
:10390000013A82403B431343E26A144CB1FA81F11D
:1039100002FA01F10B436B6001233360FFF72AF8D1
:10392000054623689A013FF5C8AEFFF723F8401B10
:103930000228F6D9F0E6FFF71DF8C01B0228C4D90B
:10394000EAE6FFF717F804462B689B017FF5B5AE52
:10395000FFF710F8001B0228F6D9DDE60038024018
:1039600060004742194A936803F00C03042B10B51A
:1039700003D0082B03D0164810BD164810BD51685F
:10398000536801F03F0113F4800F47F6C074536889
:1039900094FAA4F0B0FA80F003EA040323FA00F3E7
:1039A00014BF0C480A48B0FBF1F05843074B4FF4E2
:1039B00040325B6892FAA2F2B2FA82F203F4403328
:1039C000D34001335B00B0FBF3F010BD0038024080
:1039D0000024F40000127A00564B1A6802F00F021D
:1039E0008A422DE9F04105460E4630D32A689407F5
:1039F00037D4D0073DD44F4B1A6802F00F029642DD
:103A0000C0F088802A68510700F18C80130707D521
:103A1000494A2969936823F4604343EAC1039360E8
:103A2000FFF7A0FF444BF0229B6892FAA2F2B2FA91
:103A300082F203F0F003D340404AD35CD840404BBD
:103A400018600F20FDF798FE0020BDE8F081CAB293
:103A50001A701B6803F00F039942C7D00120BDE81C
:103A6000F0813549A8688B6823F0F00303438B602D
:103A7000BFE76A68304B012A1ED11B6813F4003F70
:103A8000ECD02D4CA36823F003031343A360FEF78F
:103A900071FF6B68012B074641F2883816D1A36885
:103AA00003F00C03042BA6D0FEF764FFC01B4045B7
:103AB000F5D90320BDE8F081911E01291B6802D8C9
:103AC00013F0007FDCE713F0020FD9E7022B0AD1D5
:103AD000A36803F00C03082B8DD0FEF74BFFC01B2F
:103AE0004045F5D9E5E7032B0FD1A36803F00C039C
:103AF0000C2B80D0FEF73EFFC01B4045F5D9D8E720
:103B0000FEF738FFC01B4045D3D8A36813F00C0F55
:103B1000F6D170E7F2B21A701B6803F00F039E42F1
:103B20009CD16FE70449E8688B6823F4E0530343B2
:103B30008B606BE7003C024000380240F5F600085D
:103B4000A4010020084B4FF4E0529B6892FAA2F2C5
:103B5000B2FA82F203F4E053D340044AD35C044A3D
:103B60001068D840704700BF0038024005F70008D1
:103B7000A4010020084B4FF460429B6892FAA2F225
:103B8000B2FA82F203F46043D340044AD35C044A9D
:103B90001068D840704700BF0038024005F70008A1
:103BA000A40100200F2303600B4B9A6802F003026C
:103BB00042609A6802F0F00282609A6802F4E05271
:103BC000C2609B68DB0803F4E0530361034B1B688E
:103BD00003F00F030B60704700380240003C0240C6
:103BE00070470000224A036890420ED0B0F1804F27
:103BF0000BD0A2F57C42904207D002F58062904241
:103C000003D002F58062904219D14A6823F0700314
:103C10001343174A904204D1CA6823F440731343F4
:103C200018E0B0F1804FF7D0124A9042F4D002F57C
:103C300080629042F0D002F580629042ECD00E4A51
:103C40009042E9D002F580629042E5D002F58062B0
:103C50009042E1D003608B68C3620B688362044BBF
:103C6000984204BF0B69036301234361704700BF9F
:103C700000000140000400400040014010B504462F
:103C8000A0B190F8393003F0FF021BB980F838205A
:103C9000FFF7A6FF022384F839302068211DFFF7C3
:103CA000A1FF012384F83930002010BD012010BD90
:103CB000036A10B501248C4023EA04030362036AFB
:103CC0008A401A43026210BD10B504460122006802
:103CD000FFF7EEFF2368064A934202BF5A6C42F494
:103CE00000425A641A6842F001021A60002010BDB6
:103CF00000000140FFF7E8BF2DE9F0470668C26801
:103D00003369C16923F44053134333610446836824
:103D10000069F2680343606922F41642034322F00B
:103D20000C020B431343F3607369A26923F44073DD
:103D30001343B1F5004F73617A4B7CD19E4203D09F
:103D400003F580639E4244D1FFF714FF192505FB5C
:103D500000F360684FF064094000B3FBF0F3B3FB7D
:103D6000F9F34FEA0318FFF705FF636868435B0048
:103D7000B0FBF3F7FFF7FEFE636868435B00B0FB40
:103D8000F3F3B3FBF9F309FB1373DB003233B3FB3B
:103D9000F9F35B0003F4F877FFF7ECFE6268684321
:103DA0005200B0FBF2FAFFF7E5FE636868435B0080
:103DB000B0FBF3F3B3FBF9F309FB13A3DB003233DE
:103DC000B3FBF9F303F0070343443B44B360BDE89E
:103DD000F087FFF7B7FE192505FB00F360684FF089
:103DE00064094000B3FBF0F3B3FBF9F34FEA0318A7
:103DF000FFF7A8FE636868435B00B0FBF3F7FFF7CB
:103E0000A1FE636868435B00B0FBF3F3B3FBF9F317
:103E100009FB1373DB003233B3FBF9F35B0003F4EC
:103E2000F877FFF78FFE626868435200B0FBF2FA42
:103E3000FFF788FEB9E79E4202D03B4B9E4240D13D
:103E4000FFF798FE676819254FF0640905FB00F33A
:103E5000BF00B3FBF7F3B3FBF9F31F01FFF78AFED3
:103E6000636868439B00B0FBF3F8FFF783FE636869
:103E700068439B00B0FBF3F3B3FBF9F309FB138337
:103E80001B013233B3FBF9F303F0F008FFF772FEC6
:103E9000626868439200B0FBF2FAFFF76BFE63685A
:103EA00068439B00B0FBF3F3B3FBF9F309FB13A3E7
:103EB0001B013233B3FBF9F303F00F0343EA0803AA
:103EC00083E7FFF73FFE676819254FF0640905FB9C
:103ED00000F3BF00B3FBF7F3B3FBF9F31F01FFF7E8
:103EE00031FE636868439B00B0FBF3F8FFF72AFEDE
:103EF000636868439B00B0FBF3F3B3FBF9F309FB82
:103F000013831B013233B3FBF9F303F0F008FFF71F
:103F100019FE626868439200B0FBF2FAFFF712FEE6
:103F2000BDE700BF0010014000140140704710B50C
:103F3000044640B390F8393003F0FF021BB980F813
:103F40003820FFF7F3FF2268242384F83930D36840
:103F500023F40053D3602046FFF7CEFE23681A698E
:103F600022F490421A615A6922F02A025A61DA68F0
:103F700042F40052DA6000202023E06384F83930F4
:103F800084F83A3010BD012010BD7FB50F23019396
:103F9000022302934FF480520023032101A80393CC
:103FA00004920593FFF718FDB0FA80F0400907B0BE
:103FB0005DF804FB0F49D1F8883043F47003C1F871
:103FC00088300D4B1A68002042F001021A60986098
:103FD0001A6822F0847222F480321A60074A5A600A
:103FE0001A6822F480221A60D8604FF000638B6058
:103FF000704700BF00ED00E00038024010300024A0
:1040000000B58FB01C4B002100911A6C42F0805219
:104010001A641B6C194A03F080530093009B0191B2
:10402000136823F4404343F400431360136803F41C
:1040300040430193019B01230293C0B94FF48033A5
:104040000393022308934FF48003099304230A93F4
:104050000C930823C8220DEB03000B920D93FFF77E
:10406000EDFA38B9FFF791FF0FB05DF804FB4FF49C
:10407000A023E5E70020F7E7003802400070004089
:1040800010B58EB000241A4B00941A6C42F0805286
:104090001A641B6C174A03F080530093009B019431
:1040A000136823F4404343F40043136013680394FC
:1040B00003F440430193019B0994032302930123DA
:1040C0000593102306930223C822089308230B921A
:1040D0000DEB030004220A930C920D93FFF7AEFA46
:1040E00018B9FFF752FF0EB010BD2046FBE700BF26
:1040F000003802400070004008B50120FFF780FF43
:1041000018B9FFF7BDFF00B9FEE708BD174A184907
:10411000936803F00C03042B10B50DD0082B0DD0C1
:10412000144B0B60114B144A9B68C3F30313D25C0E
:104130000B68D3400B6010BD104BF2E75468506819
:1041400052686302C2F3881200F03F004CBF0B4B71
:10415000084BB3FBF0F35343044A5268C2F30142E5
:1041600001325200B3FBF2F3DBE700BF003802403C
:10417000A40100200024F400F5F6000800127A00E3
:1041800070470000014B586A704700BF000C0040A8
:10419000054B1B68DA6822F00202DA605863DA68BD
:1041A00042F00202DA60704768110020034B1A687F
:1041B000536943F002035361704700BF6811002048
:1041C000034B1A68D36823F00203D360704700BF23
:1041D00068110020024B1B686FF002021A617047E1
:1041E0006811002038B504460D4603685AB182684C
:1041F000136020460121FDF769FA29462046BDE8F3
:104200003840FDF75FBAC2681B04F1E770B50E468F
:1042100004461546FDF736FA013606D02A462046F2
:104220000021BDE87040FFF7DDBF70BD0022FFF741
:10423000EDBF10B480B1146853680CB9DA070BD520
:1042400013F0010F4FEA63031CBFC25814591844FE
:1042500023465DF8044B18475DF8044B7047000097
:10426000064B19681A1D01B91A601B68934204D0E5
:104270005D220349034800F06DBC7047F40E002036
:10428000C1F400081EF50008F7B51D4B04460E46A4
:10429000174640F8043B1022002103F0DFF9002309
:1042A0000093019302A911E9030004F1180282E8C6
:1042B00003001449216248F207016162E362A462CB
:1042C0002263114A6263BFF36F8FBFF34F8F04F114
:1042D0003C0584F8383084F8393019469422284651
:1042E00003F0BCF9094BC4F8D03028463A463146B1
:1042F000FDF7B2FB064B20461C6003B0F0BD00BFCB
:1043000018F7000801A090E833420008A0860100D9
:10431000FC0E0020036870B504460D461B689847E4
:1043200004F13C00C4F8D0502946FDF76DFB044B66
:104330001C60236820465B68BDE87040184700BFDA
:10434000FC0E0020036870B5094D1B6804469847B1
:104350002B689C4206D0D4F8D01004F13C00FDF745
:1043600053FB2C60236820465B68BDE8704018470B
:10437000FC0E0020F7B51D46036804461B680E4678
:10438000174698472046FFF7DDFF9DF8203083F061
:104390000103314600933A462B4604F13C00FDF7F9
:1043A000FBFB236806465B6820469847A81B18BF9E
:1043B000012003B0F0BDC36810B504460BB19B6883
:1043C0009847204610BD00000048704728F70008B5
:1043D000024B1B680BB1024818477047A801002028
:1043E00028F7000810B5044601300DD110BD9C42DD
:1043F00009D120468968FDF78FFF20460021BDE8DE
:104400001040FEF721B80C31B1F900305A1CEED142
:104410000248BDE8104000F01DBB00BF7DF700085A
:10442000884208B508D0431C06D0013106D00448A4
:1044300000F010FB4FF0FF31084608BD0146FBE7D6
:104440004CF70008B1F900305A1C01D118467047EA
:10445000834201D1486870470C31F3E7421C10B524
:10446000044607D0FFF7EEFF431C044602D1024882
:1044700000F0F0FA204610BD5DF700087047704765
:1044800010B480B1146853680CB9DA070BD513F077
:10449000010F4FEA63031CBFC25814591844234646
:1044A0005DF8044B18475DF8044B7047090170B57F
:1044B00001F198050544EB6883B14418D4F8A430A1
:1044C0002BB94FF404720649064800F043FBD4F8B8
:1044D000A43028461B68BDE87040184770BD00BF77
:1044E0008EF70008E7F700084C30FEF7FDB910B56D
:1044F0004C300C46FEF70AFA204610BDC36810B5D2
:1045000004460BB19B689847204610BD884238B5D9
:1045100004460D460AD0FFF7F1FF3CB1EB681BB132
:104520005B68294620469847EB68E360204638BD23
:104530002DE9F04F87B0002592460095024601957F
:10454000044689469B469DE80300324B42F8083BEF
:10455000314B82E80300236148F2070363612F4B6C
:10456000E561A46122626362BFF36F8FBFF34F8F77
:10457000102284F8285084F8295004F12C0003F00C
:104580006DF804F14C062946102204F13C0003F0BA
:1045900065F804F1980829464C22304603F05EF88D
:1045A00004F1A80729461022404603F057F829468F
:1045B0001022384603F052F810222946C4F8B8B049
:1045C00002A803F04BF802A94046FFF79FFF02A89C
:1045D000FFF794FF1022294602A803F03FF802A932
:1045E0003846FFF793FF02A8FFF788FF5246494677
:1045F0003046FDF7F3FFD4F8B8103046FDF7C8FF9A
:10460000304622460649FEF713F9204607B0BDE8BA
:10461000F08F00BFF4F7000801A090E88144000883
:10462000AD4400082DE9FF410646884656F84C3B4C
:1046300017461B6805463C01984700F027FAD8F852
:104640000C3098342C44ABB1E3680BB900F0ECFBB0
:1046500041462046FFF75AFF012239463046FEF711
:10466000F3F800F03FFA2B6828465B68984704B0DF
:10467000BDE8F081E3680BB100F0F0FB10220021EF
:10468000684602F0EBFF69462046FFF73FFF6846A9
:10469000FFF734FF0022E0E77FB51A4B03600446C2
:1046A00010220021684602F0D9FF00226946204608
:1046B000FFF7B8FF6846FFF721FF10220021684688
:1046C00002F0CCFF012269462046FFF7ABFF6846A7
:1046D000FFF714FF14F1980608D004F1B805B542AD
:1046E00004D0103D2846FFF709FFF8E704F13C002D
:1046F000FFF761FE04F12C00FFF75DFE204604B0D9
:1047000070BD00BFF4F7000810B50446FFF7C4FF02
:104710002046FDF7F9FC204610BD00002DE9F347C7
:1047200090E8080404465B68984763681B6A9842EF
:1047300035D0DAF82040DAF80C30DAF80820CAF878
:104740002000041B1C402E4B9A4226464FF00007C7
:104750001FD0DAE90A01B2F5004FA4FB0345CDE909
:10476000000127D1DDE9002347F6FF70E60B0021A9
:104770000440121946EA45464FEAD53705EA0105D5
:104780006B41994208BF904214461D460AD3CAE9BC
:104790000A45DAE90C23B6185F41CAE90C6702B092
:1047A000BDE8F087013647F10007B2F5004443F158
:1047B000FF35ECE74FF000094B462046294690466E
:1047C00008F0C4FD424606460F464B4620462946A1
:1047D00008F0BCFDDDE9000180185941494508BFDA
:1047E000404502460B4602D2CAE90A23D1E7013608
:1047F00047F10007B0EB080261EB0903F4E700BFE3
:1048000040420F00824206D98A420BD9884294BFA7
:10481000002001207047884206D98A428CBF0020C0
:104820000120704701207047002070472DE9F047B4
:104830008046D0F80490FFF771FFD8F80450D8F8FC
:1048400000A0696800294AD0D5E90C23D1E90067A6
:10485000BB4208BFB24204D3DAF81430BDE8F047D7
:104860001847B61A67EB0307D5E90623BB4208BF12
:10487000B2422C6906D3AB68204A934219D1B442A4
:1048800028BF34462A6ADAF810301444EA68144023
:1048900020469847D8F800305B6898472246014682
:1048A000D9F82000FFF7AEFF30B3D8F800305B69CD
:1048B000D4E7B3F5004F0BD1F903104A0023F003FE
:1048C00041EA564108F042FD844228BF0446D9E738
:1048D000A3FB060103FB0711084A0023F2E7D9F8FE
:1048E0001030D9F82000D9F80C2018441040DAF81C
:1048F0001030BDE8F0471847BDE8F08740420F0090
:1049000003682DE9F74F04461B68984723689B69A5
:104910009847D0F800B00546BBF1000F06D1292218
:104920002A492B48DFF8ACB000F014F9D5F804A000
:10493000AAF104031C2B06D92F222449244800F095
:1049400009F94FF0200AAAF1040307251BF1FF30F3
:1049500005FA03F51F4E4FF0000343F1FF315A46AD
:10496000C6FB050108F0F2FCD4F804800023C8F867
:104970000030C8F8043023685B680F460646984745
:104980006368C8F820004FF000094FF00008C3E941
:104990000A89C3F808B0524601200021019308F0AB
:1049A00039F8019B01220138D8601D612046C3E916
:1049B0000667C3E90C8983F83820FFF7AFFE20466D
:1049C00003B0BDE8F04FFFF731BF00BF04F80008A7
:1049D000F3F6000840420F0070B5044600F056F8A8
:1049E0002368DB68984763685B68A3B12046FFF7DC
:1049F00095FE65686E68D5E90C01D6E900239942F9
:104A000008BF904207D3F3686B602B68002BEAD095
:104A1000B0689847E7E72046FFF708FFBDE8704019
:104A200000F060B8436893F8383010B504460BB90D
:104A3000FFF766FF00F02AF82046FFF76FFE00F050
:104A400051F86368D3E90C0110BD08B5FFF7EAFF20
:104A500008BD00000FB413B5084B1A784AB90124F9
:104A600005A904981C700191FDF794F92046FDF703
:104A70000FFB02B0BDE8104004B07047400F0020AB
:104A8000EFF31080C04300F00100704738B5FFF726
:104A9000F7FF054672B60E4C236823B980F0010378
:104AA0000C4ADBB213702368013304D143220A4954
:104AB0000A4800F04FF823682BB125B14722064978
:104AC000074800F047F823680133236038BD00BF72
:104AD000440F0020410F002054F80008A7F80008F8
:104AE000CDF8000810B50A4C236883B1FFF7C8FF62
:104AF00020B158220749084800F02CF82368013BF0
:104B0000236023681BB9054B1B7803B962B610BD3F
:104B1000440F002054F80008CDF80008410F002091
:104B200038B505460C46FFF7B1FF29880C44A4B2FE
:104B30002C80FFF7D7FF204638BD70B505460E46DE
:104B4000FFF7A4FF2C88A41BA4B22C80FFF7CAFF98
:104B5000204670BD70B504460D461646FFF796FF19
:104B600033462A4621460348FDF73EF9BDE870402A
:104B7000FDF7E4B8E1F800087047A0F1BC00FFF7CA
:104B8000FBBFA0F1BC00FFF7F7BFFFF7ADBCA0F182
:104B9000BC00FFF7FABFFFF7AABCA0F1BC00FFF70B
:104BA000FABF000038B504461D46049BFFF7C0FC61
:104BB000294604F1BC0000F0DFF8064B03F10802BF
:104BC000226003F128028433C4F8BC20C4F8C0304A
:104BD000204638BD14F9000810B500230360436077
:104BE0000A782F2A04460DD14A785AB1481C206011
:104BF000194623681A782F2A06D10133236000F062
:104C000095F96060204610BD002AF8D001330131CB
:104C10002360EEE700687047406808B520B100F0F7
:104C200035F9431E5842584108BD10B50446FFF7F8
:104C3000F3FF10B1606800B1043810BD406808B5DA
:104C400020B100F023F9B0FA80F0400908BD10B59A
:104C50000446FFF7F3FF10B1606800B1043810BDDF
:104C60004068003018BF0120704770B50446FFF758
:104C7000ABFB0646FFF7E9FE05463046FFF7E5FECB
:104C8000401BA042F9D370BD07EE100ADFED047A95
:104C900067EE277AFDEEE77A17EE900AFFF7E5BF99
:104CA000002474494FF47A735843FFF7DEBF0020A5
:104CB000704700207047036801221B6900211847D4
:104CC000036800221B6911461847F8B50368DB6CBE
:104CD0000E4604468F1898473546BD4207D02368D4
:104CE00015F8011B5B6C204698470130F5D123680D
:104CF00020461B6D9847A81BF8BDF8B50368DB6C10
:104D00000E4604468F1898473546BD4208D02368A2
:104D100020469B6C9847431C02D005F8010BF4E732
:104D2000236820461B6D9847A81BF8BD00207047DC
:104D300070470020704700207047000010B5054BF9
:104D400003604C33044640F8043F00F0BFF82046AF
:104D500010BD00BFA8F90008A0F10400EEE700BFF5
:104D600010B50446FFF7EAFF2046FDF7CDF92046CF
:104D700010BDA0F10400F3E70F4B10B5002204466C
:104D800040F8043B00F084F80C4B23605C33636014
:104D9000002363610A49204600F001F9606118B1FF
:104DA000FDF77BF9204610BD01F036FC016805488F
:104DB000FFF750FEF6E700BFF8FA000828FA0008EF
:104DC000FCF90008FFF9000810B5074B03F10802D1
:104DD0006433044602604360406901F085FC20466C
:104DE000FFF7ACFF204610BD20FA00080EB477B5DF
:104DF000036807AD044655F8046BDB6C984760699F
:104E0000019501F043FD019A6069314604F086FD89
:104E1000236805461B6D20469847284603B0BDE829
:104E2000704003B07047000008B5FFF72FFE094B34
:104E30001A884FF6FF739A4204D1FFF753FE0648D3
:104E4000FFF708FE01210348FFF76AFEBDE80840AE
:104E5000FFF748BE480F00208CFA000808B5FFF79E
:104E600015FE084B1B8823B9FFF73CFE0648FFF7E9
:104E7000F1FD01210348FFF760FEBDE80840FFF7A0
:104E800031BE00BF480F0020B9FA0008007B704710
:104E900038B504460A4B0360002343600D46A16009
:104EA00002730848FDF736F945B1074B1A6862608E
:104EB0001C600448FDF72EF9204638BD6560F8E710
:104EC000E8FA0008500F00204C0F002010B50F4BDF
:104ED000036004460E48FDF71DF9A3682BB10D4A87
:104EE00013689C420CD1636813600948FDF712F9FE
:104EF000237B13B9201FFDF723F9204610BD13466D
:104F00005A689442FBD162685A60EEE7E8FA0008FA
:104F1000500F00204C0F002010B50446FFF7D6FFBD
:104F20002046FDF7F1F8204610BD000070B506469A
:104F30000C480D46FDF7EEF80B4B1C685CB1A06801
:104F400070B12A46314603F0C9F948B9A06803F0A8
:104F500057F9854204D10348FDF7DCF8204670BDBF
:104F60006468EBE7500F00204C0F0020036870B519
:104F70001B690122002104469847051E0DDB2368AA
:104F800002221B69002120469847236806462946CD
:104F90001B690022204698473546284670BDFDF71C
:104FA0007FB80000FDF7B0B838B50546082000F01E
:104FB0006DF92946044600F0D3FF2046044A05490E
:104FC00000F0D2F9204600F079F900F01DF800BF9A
:104FD000515D000850FC000838B50546082000F077
:104FE00055F92946044600F0CFFF2046044A0549FA
:104FF00000F0BAF9204600F061F900F005F800BFB2
:10500000A55D00085CFC00081EB400F091F81EBC11
:1050100009F096F8F0B50278472A83B00D461F468E
:105020001ED00023274C0193236820469B68984795
:1050300080B1019B1B68019302262B6821462846FC
:105040001C6901AA0123A04730B1019B3B60304697
:1050500003B0F0BD0126F0E70646304603B0F0BDD0
:1050600043784E2BDDD18378552BDAD1C378432B8F
:1050700019D0C378432BD4D10379432BD1D14379B1
:105080002B2BCED183792B2BCBD1C379012BC8D835
:1050900004D050F8204C58300190C5E750F8200C4F
:1050A00050F8784CF8E70379462BE2D143794F2B3F
:1050B000DFD18379522BDCD1C379002BD9D1019375
:1050C000014CB1E758FB000850FB000810B504463E
:1050D00000F06AF82378472BA4F1200204D08368FB
:1050E00023BB8260012010BD63784E2BF7D1A378DB
:1050F000552BF4D1E378432BF1D12379432BEED117
:1051000063792B2BEBD1A3792B2BE8D1E379012BFE
:10511000E5D854F8043C0133012B44F8043CE1D1B8
:10512000836844F8083C8260012010BD00F0E6FD71
:1051300008B500F039F8836883B393F82020472A34
:1051400004D00022826003F1200008BD93F82120E2
:105150004E2AF6D193F82220552AF2D193F8232033
:10516000432AEED193F82420432AEAD193F825204C
:105170002B2AE6D193F826202B2AE2D193F8272078
:10518000012ADED8DA69013ADA61002ADBD19A69AC
:10519000826000229A6103F1200008BD00F0AEFD9C
:1051A00000487047580F002000487047580F0020F3
:1051B000F0B41B4C50F8087C6168A0F10806C9B136
:1051C000F519A9421BD04A682AB3954203D322E0BD
:1051D0009D4205D21A4653680C1D1146002BF7D18B
:1051E00011685518AE4213D040F8043C23685E6045
:1051F000F0BC704740F8041C6660F0BC70470B6858
:105200004A6840F8042C1F4440F8087C6660EFE7C9
:105210000F441760ECE7134604340A46E0E700BF8A
:10522000640F002030B4184C00F1080163680829AD
:1052300038BF082113B307311A6821F007019142E2
:1052400004D81DE00268914205D903465868002839
:10525000F8D130BC70470433521A072A0AD94518CE
:1052600044686C601C68425021601D6004F10800B5
:1052700030BC704742681A600446F7E71846E8E712
:105280001846231DE8E700BF640F002038B500F181
:105290008005284602F06EF8044638B180220021CD
:1052A000204602F0DBF904F1800038BD2846FFF704
:1052B000B9FF04460028F1D100F020FD064A9368AA
:1052C0008038984205D9D2681344984201D2FFF73A
:1052D0006FBF02F057B800BF640F002038B5084C0C
:1052E0004FF41E652846E56002F044F8A06020B146
:1052F000002360600560436038BDE060606038BDD9
:10530000640F0020704700BF704700BF004870471F
:105310003CFB000810B504210446FFF743FE20467D
:1053200010BD00BF012810B51AD8BFF35B8FA1F1E3
:10533000280353E8002F013A43E800200028F8D161
:10534000BFF35B8F5AB951F81C3C01F158040BB103
:10535000204698472046BDE81040FFF7AFBF10BD7C
:1053600051F8140C00F0B6FCF8B504460F4616468A
:10537000FFF71AFF436801252B44436044F8787C0B
:1053800044F8746C44F8805C00F0D8FC44F8700C6D
:1053900000F0CCFC472343224FF04E0E104904F896
:1053A000583CA4F158052B235527002644F86C0CD3
:1053B00004F857EC44F8501C04F8552C04F8542C0D
:1053C00004F8533C04F8523C04F8567C04F8516C41
:1053D000284608F0A3FE284600F03CF800F08EFCBA
:1053E0002553000810B5FFF7DFFE4268046801325C
:1053F000426064B194F82020472A0AD0002202605B
:105400002034204608F0AEFE204600F023F800F0DD
:1054100075FC94F821204E2AF0D194F82220552AC8
:10542000ECD194F82320432AE8D194F82420432A8D
:10543000E4D194F825202B2AE0D194F826202B2AB9
:10544000DCD194F82720012AD8D8626952426261DF
:10545000D6E700BF38B50446FFF7A6FE22780368FA
:10546000472AA4F1200104D083BB1C4601602046DA
:1054700038BD62784E2AF7D1A278552AF4D1E27865
:10548000432AF1D12279432AEED162792B2AEBD13A
:10549000A2792B2AE8D1E279012AE5D854F80C2C1C
:1054A000002A10DB0132456844F80C2C013D4560B0
:1054B0008B421CBF44F8103C01602046646A08F02F
:1054C00091FA204638BDC2F10102ECE700F016FC6B
:1054D00008B5FFF765FE0246006800283DD090F849
:1054E0002030472B06D0002313602030BDE8084051
:1054F00008F07ABA90F821304E2BF4D190F822308F
:10550000552BF0D190F82330432BECD190F8243078
:10551000432BE8D190F825302B2BE4D190F826309E
:105520002B2BE0D190F82730012BDCD84369002BDE
:1055300005DB013B08D05A1C0DD0436108BD013387
:10554000FBD101691160F8E7036913602030BDE801
:10555000084008F049BA00F0D1FB08BD10B5034B74
:105560000360044600F010FE204610BD2CFC00082D
:1055700010B5054B0360044600F006FE20460C21E2
:10558000FFF710FD204610BD2CFC000870B582B05E
:105590000D46069C9442064609D0B06806680694FB
:1055A000346A2946A44602B0BDE8704060471946F7
:1055B0000192009300F0B0FD009B019A0028ECD00E
:1055C000062002B070BD00BF2DE9F04F81B00E463D
:1055D00019461F46914683460A9CDDF82CA0DDF84B
:1055E00030800D9D00F098FD70B1002E2C6085F884
:1055F00004901FDB3444A0450CBF06240124AC7189
:10560000002001B0BDE8F08F444518D0DBF8080059
:10561000D0F800E00D95CDF83080CDF82CA00A949C
:10562000DEF81C403B464A463146A44601B0BDE880
:10563000F04F60470236E3D10123AB71E0E75146FA
:10564000584600F069FD0028E0D0002085F805905C
:1056500001B0BDE8F08F00BF2DE9F04107460C46D0
:1056600015461E4600F0A8FD08B1BDE8F081B868F7
:1056700007682146BC6933462A46A446BDE8F04186
:10568000604700BF5028F8B554D000F00F040C2C30
:105690004ED8DFE804F007394907174D4D4D4D1F2F
:1056A0001B071700154655F8044B44B100F070066F
:1056B000102E08BF11460C44020648BF24681C6027
:1056C0002846F8BD154655F8084BEEE7154635F95E
:1056D000024BEAE700242746154615F801EB0EF0C9
:1056E0007F06BE401EF0800F44EA060407F107075C
:1056F000F3D11F2FD9D81EF0400FD6D04FF0FF3670
:1057000006FA07F73C43D1E700242746154615F86B
:1057100001EB0EF07F06BE401EF0800F44EA060447
:1057200007F10707F3D1C0E7154635F8024BBCE790
:1057300000F06AFF033222F0030555F8044B1C60A9
:105740002846F8BDFF280DD000F07000202815D0A5
:105750000AD940280FD0502804D0302808D1084654
:1057600008F0F2BE002070470028FBD01028F9D0C6
:1057700008B500F049FF084608F0D2BE084608F018
:10578000DFBE00BFF8B50C4615460746002844D0DA
:1057900008F0C6FE28602678FF2E04F1010432D0FE
:1057A00039463046FFF7CEFF224601462B1D3046D4
:1057B000FFF768FF0446601C23782B75FF2B29D068
:1057C000102300242B75224610F8011B01F07F03E3
:1057D0009340090644EA030402F10702F4D40444A6
:1057E000EC6003786B7500240130224610F8011B31
:1057F00001F07F0393401C430B0602F10702F5D42E
:1058000004442C61F8BD686023782B75FF2B04F1EC
:105810000100D5D10023EB60E3E7BBE72DE9F04FB2
:1058200000F0030497B00023012C894617460A9321
:105830001ED00ED3022C0AD13946484608F05CFE31
:10584000002800F0A580092017B0BDE8F08F00F017
:10585000DBFE0007F0D40123039316AA002342F8CD
:105860002C9D1946009238460C2208F0E9F80FE00A
:1058700010F0080400F0908016AA44F0020442F8E8
:105880002C1D3846009219460C22039408F0D8F8D3
:10589000384608F04BFE05900028CDD010AB1A46D4
:1058A000059906933846FFF76DFF394604469DF883
:1058B0005400FFF747FF0DF13C0B002312901946EF
:1058C0000F22CDF800B0384608F094F80F9B149AD8
:1058D00023F00103A24203F1FF3675D90DF1340A1A
:1058E0000DF138089DF8555000212846FFF72AFF92
:1058F0002246534601462846FFF7C4FE9DF8554010
:10590000054600212046FFF71DFF2A464346014673
:105910002046FFF7B7FE9DF855400546002120467A
:10592000FFF710FF2A4601465B462046FFF7AAFE16
:1059300004460020024614F8011B01F07F03934047
:10594000090640EA030002F10702F4D4109B0D9A05
:1059500013449E4231D2039BDB0739D500250495C1
:10596000002319460D22CDF8008038460A9C08F025
:1059700041F8059A0E9BC9F82C20049AC9F82440D6
:10598000C9F82850C9F83020C9F8203006205BE754
:10599000082017B0BDE8F08F10AB009306930D22DE
:1059A000234621463846D9F8205008F023F8109BAA
:1059B0009D4212D0022303934FE70E9A13449E4256
:1059C00059D3149BA3428DD800250495012405E1E9
:1059D000039B1B074CD500F091F916AA234642F809
:1059E0002C9D2146009238460C2208F029F8D9F85F
:1059F00030300493002B3BD0D9F82850D9F82C1024
:105A00000324002DC0F206810DF1340A0DF138088F
:105A100016A9002341F8289D1A46009138461946D8
:105A200008F00EF8002319460122CDF800A03846F0
:105A30000D9508F005F8002319460F22CDF80080D7
:105A4000384607F0D7FF0E9B049ACDF8008003F08C
:105A5000010500231543384619460F220E9507F01D
:105A6000EFFF022C00F08080072017B0BDE8F08F18
:105A7000484600F001FC0F9B04931A46002B78D196
:105A800000283FF4D9AE149B049A01380344002A3D
:105A90003FF4D2AE002B75D0039A12F0080209929F
:105AA00000F0F68047214E2289F8001089F8012085
:105AB0005521432289F8021089F8032046214F22FC
:105AC00089F8041089F805205221002289F806106F
:105AD00089F807200022089207970025294600E050
